{
  "contractName": "UsersContract",
  "abi": [
    {
      "inputs": [],
      "stateMutability": "nonpayable",
      "type": "constructor"
    },
    {
      "anonymous": false,
      "inputs": [
        {
          "indexed": true,
          "internalType": "address",
          "name": "account",
          "type": "address"
        },
        {
          "indexed": false,
          "internalType": "enum UsersContract.Roles",
          "name": "role",
          "type": "uint8"
        }
      ],
      "name": "RoleAssigned",
      "type": "event"
    },
    {
      "anonymous": false,
      "inputs": [
        {
          "indexed": true,
          "internalType": "address",
          "name": "account",
          "type": "address"
        },
        {
          "indexed": false,
          "internalType": "enum UsersContract.Roles",
          "name": "role",
          "type": "uint8"
        }
      ],
      "name": "UserCreated",
      "type": "event"
    },
    {
      "inputs": [],
      "name": "Owner",
      "outputs": [
        {
          "internalType": "address",
          "name": "",
          "type": "address"
        }
      ],
      "stateMutability": "view",
      "type": "function",
      "constant": true
    },
    {
      "inputs": [
        {
          "internalType": "uint256",
          "name": "",
          "type": "uint256"
        }
      ],
      "name": "userAddresses",
      "outputs": [
        {
          "internalType": "address",
          "name": "",
          "type": "address"
        }
      ],
      "stateMutability": "view",
      "type": "function",
      "constant": true
    },
    {
      "inputs": [
        {
          "internalType": "address",
          "name": "",
          "type": "address"
        }
      ],
      "name": "users",
      "outputs": [
        {
          "internalType": "address",
          "name": "account",
          "type": "address"
        },
        {
          "internalType": "enum UsersContract.Roles",
          "name": "role",
          "type": "uint8"
        }
      ],
      "stateMutability": "view",
      "type": "function",
      "constant": true
    },
    {
      "inputs": [
        {
          "internalType": "address",
          "name": "_account",
          "type": "address"
        },
        {
          "internalType": "enum UsersContract.Roles",
          "name": "_role",
          "type": "uint8"
        }
      ],
      "name": "createUser",
      "outputs": [],
      "stateMutability": "nonpayable",
      "type": "function"
    },
    {
      "inputs": [
        {
          "internalType": "address",
          "name": "_account",
          "type": "address"
        },
        {
          "internalType": "enum UsersContract.Roles",
          "name": "_role",
          "type": "uint8"
        }
      ],
      "name": "assignRole",
      "outputs": [],
      "stateMutability": "nonpayable",
      "type": "function"
    },
    {
      "inputs": [
        {
          "internalType": "address",
          "name": "_account",
          "type": "address"
        }
      ],
      "name": "removeUser",
      "outputs": [],
      "stateMutability": "nonpayable",
      "type": "function"
    },
    {
      "inputs": [
        {
          "internalType": "address",
          "name": "_account",
          "type": "address"
        }
      ],
      "name": "getUserRole",
      "outputs": [
        {
          "internalType": "enum UsersContract.Roles",
          "name": "",
          "type": "uint8"
        }
      ],
      "stateMutability": "view",
      "type": "function",
      "constant": true
    },
    {
      "inputs": [],
      "name": "getAllUsers",
      "outputs": [
        {
          "internalType": "address[]",
          "name": "",
          "type": "address[]"
        },
        {
          "internalType": "enum UsersContract.Roles[]",
          "name": "",
          "type": "uint8[]"
        }
      ],
      "stateMutability": "view",
      "type": "function",
      "constant": true
    }
  ],
  "bytecode": "0x60806040523480156200001157600080fd5b50336000806101000a81548173ffffffffffffffffffffffffffffffffffffffff021916908373ffffffffffffffffffffffffffffffffffffffff16021790555060405180604001604052803373ffffffffffffffffffffffffffffffffffffffff168152602001600280811115620000b3577f4e487b7100000000000000000000000000000000000000000000000000000000600052602160045260246000fd5b815250600160003373ffffffffffffffffffffffffffffffffffffffff1673ffffffffffffffffffffffffffffffffffffffff16815260200190815260200160002060008201518160000160006101000a81548173ffffffffffffffffffffffffffffffffffffffff021916908373ffffffffffffffffffffffffffffffffffffffff16021790555060208201518160000160146101000a81548160ff021916908360028111156200018e577f4e487b7100000000000000000000000000000000000000000000000000000000600052602160045260246000fd5b02179055509050506002339080600181540180825580915050600190039060005260206000200160009091909190916101000a81548173ffffffffffffffffffffffffffffffffffffffff021916908373ffffffffffffffffffffffffffffffffffffffff1602179055503373ffffffffffffffffffffffffffffffffffffffff167f855e943c5f44cb7dcc68d332cd0bfa8275cc4ea725648d4c53a6bc3ae7df984b600260405162000242919062000261565b60405180910390a2620002ed565b6200025b8162000293565b82525050565b600060208201905062000278600083018462000250565b92915050565b60008190506200028e82620002d6565b919050565b6000620002a0826200027e565b9050919050565b7f4e487b7100000000000000000000000000000000000000000000000000000000600052602160045260246000fd5b60038110620002ea57620002e9620002a7565b5b50565b61142b80620002fd6000396000f3fe608060405234801561001057600080fd5b50600436106100885760003560e01c8063985751881161005b5780639857518814610125578063a87430ba14610141578063b4a99a4e14610172578063e2842d791461019057610088565b8063278208511461008d578063502c9bd5146100bd578063630a195b146100ed5780638523cfc614610109575b600080fd5b6100a760048036038101906100a29190610e4c565b6101af565b6040516100b4919061117d565b60405180910390f35b6100d760048036038101906100d29190610eb1565b610208565b6040516100e49190611102565b60405180910390f35b61010760048036038101906101029190610e75565b610247565b005b610123600480360381019061011e9190610e75565b6104fc565b005b61013f600480360381019061013a9190610e4c565b610979565b005b61015b60048036038101906101569190610e4c565b610afa565b60405161016992919061111d565b60405180910390f35b61017a610b4b565b6040516101879190611102565b60405180910390f35b610198610b6f565b6040516101a6929190611146565b60405180910390f35b6000600160008373ffffffffffffffffffffffffffffffffffffffff1673ffffffffffffffffffffffffffffffffffffffff16815260200190815260200160002060000160149054906101000a900460ff169050919050565b6002818154811061021857600080fd5b906000526020600020016000915054906101000a900473ffffffffffffffffffffffffffffffffffffffff1681565b600280811115610280577f4e487b7100000000000000000000000000000000000000000000000000000000600052602160045260246000fd5b600160003373ffffffffffffffffffffffffffffffffffffffff1673ffffffffffffffffffffffffffffffffffffffff16815260200190815260200160002060000160149054906101000a900460ff166002811115610308577f4e487b7100000000000000000000000000000000000000000000000000000000600052602160045260246000fd5b14610348576040517f08c379a000000000000000000000000000000000000000000000000000000000815260040161033f906111d8565b60405180910390fd5b600073ffffffffffffffffffffffffffffffffffffffff16600160008473ffffffffffffffffffffffffffffffffffffffff1673ffffffffffffffffffffffffffffffffffffffff16815260200190815260200160002060000160009054906101000a900473ffffffffffffffffffffffffffffffffffffffff1673ffffffffffffffffffffffffffffffffffffffff16141561041a576040517f08c379a0000000000000000000000000000000000000000000000000000000008152600401610411906111f8565b60405180910390fd5b80600160008473ffffffffffffffffffffffffffffffffffffffff1673ffffffffffffffffffffffffffffffffffffffff16815260200190815260200160002060000160146101000a81548160ff021916908360028111156104a5577f4e487b7100000000000000000000000000000000000000000000000000000000600052602160045260246000fd5b02179055508173ffffffffffffffffffffffffffffffffffffffff167f4ac36fa53f167ceb85964be512e01de2a3b8bdb9862f917da079deeeff689b38826040516104f0919061117d565b60405180910390a25050565b600280811115610535577f4e487b7100000000000000000000000000000000000000000000000000000000600052602160045260246000fd5b600160003373ffffffffffffffffffffffffffffffffffffffff1673ffffffffffffffffffffffffffffffffffffffff16815260200190815260200160002060000160149054906101000a900460ff1660028111156105bd577f4e487b7100000000000000000000000000000000000000000000000000000000600052602160045260246000fd5b146105fd576040517f08c379a00000000000000000000000000000000000000000000000000000000081526004016105f4906111d8565b60405180910390fd5b60006002811115610637577f4e487b7100000000000000000000000000000000000000000000000000000000600052602160045260246000fd5b816002811115610670577f4e487b7100000000000000000000000000000000000000000000000000000000600052602160045260246000fd5b14156106b1576040517f08c379a00000000000000000000000000000000000000000000000000000000081526004016106a890611198565b60405180910390fd5b600073ffffffffffffffffffffffffffffffffffffffff16600160008473ffffffffffffffffffffffffffffffffffffffff1673ffffffffffffffffffffffffffffffffffffffff16815260200190815260200160002060000160009054906101000a900473ffffffffffffffffffffffffffffffffffffffff1673ffffffffffffffffffffffffffffffffffffffff1614610782576040517f08c379a0000000000000000000000000000000000000000000000000000000008152600401610779906111b8565b60405180910390fd5b60405180604001604052808373ffffffffffffffffffffffffffffffffffffffff1681526020018260028111156107e2577f4e487b7100000000000000000000000000000000000000000000000000000000600052602160045260246000fd5b815250600160008473ffffffffffffffffffffffffffffffffffffffff1673ffffffffffffffffffffffffffffffffffffffff16815260200190815260200160002060008201518160000160006101000a81548173ffffffffffffffffffffffffffffffffffffffff021916908373ffffffffffffffffffffffffffffffffffffffff16021790555060208201518160000160146101000a81548160ff021916908360028111156108bc577f4e487b7100000000000000000000000000000000000000000000000000000000600052602160045260246000fd5b02179055509050506002829080600181540180825580915050600190039060005260206000200160009091909190916101000a81548173ffffffffffffffffffffffffffffffffffffffff021916908373ffffffffffffffffffffffffffffffffffffffff1602179055508173ffffffffffffffffffffffffffffffffffffffff167f855e943c5f44cb7dcc68d332cd0bfa8275cc4ea725648d4c53a6bc3ae7df984b8260405161096d919061117d565b60405180910390a25050565b6002808111156109b2577f4e487b7100000000000000000000000000000000000000000000000000000000600052602160045260246000fd5b600160003373ffffffffffffffffffffffffffffffffffffffff1673ffffffffffffffffffffffffffffffffffffffff16815260200190815260200160002060000160149054906101000a900460ff166002811115610a3a577f4e487b7100000000000000000000000000000000000000000000000000000000600052602160045260246000fd5b14610a7a576040517f08c379a0000000000000000000000000000000000000000000000000000000008152600401610a71906111d8565b60405180910390fd5b600160008273ffffffffffffffffffffffffffffffffffffffff1673ffffffffffffffffffffffffffffffffffffffff168152602001908152602001600020600080820160006101000a81549073ffffffffffffffffffffffffffffffffffffffff02191690556000820160146101000a81549060ff0219169055505050565b60016020528060005260406000206000915090508060000160009054906101000a900473ffffffffffffffffffffffffffffffffffffffff16908060000160149054906101000a900460ff16905082565b60008054906101000a900473ffffffffffffffffffffffffffffffffffffffff1681565b606080600060028054905067ffffffffffffffff811115610bb9577f4e487b7100000000000000000000000000000000000000000000000000000000600052604160045260246000fd5b604051908082528060200260200182016040528015610be75781602001602082028036833780820191505090505b50905060005b600280549050811015610d78576001600060028381548110610c38577f4e487b7100000000000000000000000000000000000000000000000000000000600052603260045260246000fd5b9060005260206000200160009054906101000a900473ffffffffffffffffffffffffffffffffffffffff1673ffffffffffffffffffffffffffffffffffffffff1673ffffffffffffffffffffffffffffffffffffffff16815260200190815260200160002060000160149054906101000a900460ff16828281518110610ce7577f4e487b7100000000000000000000000000000000000000000000000000000000600052603260045260246000fd5b60200260200101906002811115610d27577f4e487b7100000000000000000000000000000000000000000000000000000000600052602160045260246000fd5b90816002811115610d61577f4e487b7100000000000000000000000000000000000000000000000000000000600052602160045260246000fd5b815250508080610d70906112fc565b915050610bed565b5060028181805480602002602001604051908101604052809291908181526020018280548015610dfd57602002820191906000526020600020905b8160009054906101000a900473ffffffffffffffffffffffffffffffffffffffff1673ffffffffffffffffffffffffffffffffffffffff1681526020019060010190808311610db3575b5050505050915092509250509091565b600081359050610e1c816113b7565b92915050565b600081359050610e31816113ce565b92915050565b600081359050610e46816113de565b92915050565b600060208284031215610e5e57600080fd5b6000610e6c84828501610e0d565b91505092915050565b60008060408385031215610e8857600080fd5b6000610e9685828601610e0d565b9250506020610ea785828601610e22565b9150509250929050565b600060208284031215610ec357600080fd5b6000610ed184828501610e37565b91505092915050565b6000610ee68383610f0a565b60208301905092915050565b6000610efe8383610fe4565b60208301905092915050565b610f138161129b565b82525050565b610f228161129b565b82525050565b6000610f3382611238565b610f3d8185611268565b9350610f4883611218565b8060005b83811015610f79578151610f608882610eda565b9750610f6b8361124e565b925050600181019050610f4c565b5085935050505092915050565b6000610f9182611243565b610f9b8185611279565b9350610fa683611228565b8060005b83811015610fd7578151610fbe8882610ef2565b9750610fc98361125b565b925050600181019050610faa565b5085935050505092915050565b610fed816112ea565b82525050565b610ffc816112ea565b82525050565b600061100f600c8361128a565b91507f496e76616c696420726f6c6500000000000000000000000000000000000000006000830152602082019050919050565b600061104f60138361128a565b91507f5573657220616c726561647920657869737473000000000000000000000000006000830152602082019050919050565b600061108f601b8361128a565b91507f4f6e6c792061646d696e2063616e20706572666f726d207468697300000000006000830152602082019050919050565b60006110cf60138361128a565b91507f5573657220646f6573206e6f74206578697374000000000000000000000000006000830152602082019050919050565b60006020820190506111176000830184610f19565b92915050565b60006040820190506111326000830185610f19565b61113f6020830184610ff3565b9392505050565b600060408201905081810360008301526111608185610f28565b905081810360208301526111748184610f86565b90509392505050565b60006020820190506111926000830184610ff3565b92915050565b600060208201905081810360008301526111b181611002565b9050919050565b600060208201905081810360008301526111d181611042565b9050919050565b600060208201905081810360008301526111f181611082565b9050919050565b60006020820190508181036000830152611211816110c2565b9050919050565b6000819050602082019050919050565b6000819050602082019050919050565b600081519050919050565b600081519050919050565b6000602082019050919050565b6000602082019050919050565b600082825260208201905092915050565b600082825260208201905092915050565b600082825260208201905092915050565b60006112a6826112c0565b9050919050565b60008190506112bb826113a3565b919050565b600073ffffffffffffffffffffffffffffffffffffffff82169050919050565b6000819050919050565b60006112f5826112ad565b9050919050565b6000611307826112e0565b91507fffffffffffffffffffffffffffffffffffffffffffffffffffffffffffffffff82141561133a57611339611345565b5b600182019050919050565b7f4e487b7100000000000000000000000000000000000000000000000000000000600052601160045260246000fd5b7f4e487b7100000000000000000000000000000000000000000000000000000000600052602160045260246000fd5b600381106113b4576113b3611374565b5b50565b6113c08161129b565b81146113cb57600080fd5b50565b600381106113db57600080fd5b50565b6113e7816112e0565b81146113f257600080fd5b5056fea264697066735822122038b9a170cd3d3b9984165050c67b88ef0fba449b5c482f1c5e141551f530905964736f6c63430008000033",
  "immutableReferences": {},
  "source": "// SPDX-License-Identifier: MIT\npragma solidity >=0.4.22 <0.9.0;\n\ncontract UsersContract {\n    address public Owner;\n    enum Roles {None, User, Admin}\n\n    struct User {\n        address account;\n        Roles role;\n    }\n\n    mapping(address => User) public users;\n    address[] public userAddresses;\n\n    modifier onlySuperUser() {\n        require(msg.sender == Owner, \"Only Super User\");\n        _;\n    }\n\n    modifier onlyAdmin() {\n        require(users[msg.sender].role == Roles.Admin, \"Only admin can perform this\");\n        _;\n    }\n\n    event UserCreated(address indexed account, Roles role);\n    event RoleAssigned(address indexed account, Roles role);\n\n    constructor() {\n        Owner = msg.sender;\n        users[msg.sender] = User(msg.sender, Roles.Admin);\n        userAddresses.push(msg.sender); //     \n        emit UserCreated(msg.sender, Roles.Admin);\n    }\n\n    function createUser(address _account, Roles _role) public onlyAdmin {\n        require(_role != Roles.None, \"Invalid role\");\n        require(users[_account].account == address(0), \"User already exists\");\n\n        users[_account] = User(_account, _role);\n        userAddresses.push(_account); //    \n\n        emit UserCreated(_account, _role);\n    }\n\n    function assignRole(address _account, Roles _role) public onlyAdmin {\n        require(users[_account].account != address(0), \"User does not exist\");\n        users[_account].role = _role;\n        emit RoleAssigned(_account, _role);\n    }\n\n    function removeUser(address _account) public onlyAdmin {\n        delete users[_account];\n        //       ,       \n    }\n\n    function getUserRole(address _account) public view returns (Roles) {\n        return users[_account].role;\n    }\n\n    //         \n    function getAllUsers() public view returns (address[] memory, Roles[] memory) {\n        Roles[] memory roles = new Roles[](userAddresses.length);\n\n        for (uint i = 0; i < userAddresses.length; i++) {\n            roles[i] = users[userAddresses[i]].role;\n        }\n\n        return (userAddresses, roles);\n    }\n}\n",
  "sourcePath": "/home/partybreaker911/Development/blockchain/smart-contract/contracts/UsersContract.sol",
  "compiler": {
    "name": "solc",
    "version": "0.8.0+commit.c7dfd78e.Emscripten.clang"
  },
  "schemaVersion": "3.4.16",
  "updatedAt": "2024-10-08T12:54:29.409Z",
  "networkType": "ethereum",
  "devdoc": {
    "kind": "dev",
    "methods": {},
    "version": 1
  },
  "userdoc": {
    "kind": "user",
    "methods": {},
    "version": 1
  }
}