{
  "contractName": "UsersContract",
  "abi": [
    {
      "inputs": [],
      "stateMutability": "nonpayable",
      "type": "constructor"
    },
    {
      "anonymous": false,
      "inputs": [
        {
          "indexed": true,
          "internalType": "address",
          "name": "account",
          "type": "address"
        },
        {
          "indexed": false,
          "internalType": "enum UsersContract.Roles",
          "name": "role",
          "type": "uint8"
        }
      ],
      "name": "RoleAssigned",
      "type": "event"
    },
    {
      "anonymous": false,
      "inputs": [
        {
          "indexed": true,
          "internalType": "address",
          "name": "account",
          "type": "address"
        },
        {
          "indexed": false,
          "internalType": "enum UsersContract.Roles",
          "name": "role",
          "type": "uint8"
        },
        {
          "indexed": false,
          "internalType": "bytes32",
          "name": "userId",
          "type": "bytes32"
        }
      ],
      "name": "UserCreated",
      "type": "event"
    },
    {
      "inputs": [],
      "name": "Owner",
      "outputs": [
        {
          "internalType": "address",
          "name": "",
          "type": "address"
        }
      ],
      "stateMutability": "view",
      "type": "function",
      "constant": true
    },
    {
      "inputs": [
        {
          "internalType": "uint256",
          "name": "",
          "type": "uint256"
        }
      ],
      "name": "userAddresses",
      "outputs": [
        {
          "internalType": "address",
          "name": "",
          "type": "address"
        }
      ],
      "stateMutability": "view",
      "type": "function",
      "constant": true
    },
    {
      "inputs": [
        {
          "internalType": "address",
          "name": "",
          "type": "address"
        }
      ],
      "name": "users",
      "outputs": [
        {
          "internalType": "address",
          "name": "account",
          "type": "address"
        },
        {
          "internalType": "enum UsersContract.Roles",
          "name": "role",
          "type": "uint8"
        },
        {
          "internalType": "uint256",
          "name": "createdAt",
          "type": "uint256"
        },
        {
          "internalType": "bytes32",
          "name": "userId",
          "type": "bytes32"
        }
      ],
      "stateMutability": "view",
      "type": "function",
      "constant": true
    },
    {
      "inputs": [
        {
          "internalType": "address",
          "name": "_account",
          "type": "address"
        },
        {
          "internalType": "enum UsersContract.Roles",
          "name": "_role",
          "type": "uint8"
        }
      ],
      "name": "createUser",
      "outputs": [],
      "stateMutability": "nonpayable",
      "type": "function"
    },
    {
      "inputs": [
        {
          "internalType": "address",
          "name": "_account",
          "type": "address"
        },
        {
          "internalType": "enum UsersContract.Roles",
          "name": "_role",
          "type": "uint8"
        }
      ],
      "name": "assignRole",
      "outputs": [],
      "stateMutability": "nonpayable",
      "type": "function"
    },
    {
      "inputs": [
        {
          "internalType": "address",
          "name": "_account",
          "type": "address"
        }
      ],
      "name": "removeUser",
      "outputs": [],
      "stateMutability": "nonpayable",
      "type": "function"
    },
    {
      "inputs": [
        {
          "internalType": "address",
          "name": "_account",
          "type": "address"
        }
      ],
      "name": "getUserRole",
      "outputs": [
        {
          "internalType": "enum UsersContract.Roles",
          "name": "",
          "type": "uint8"
        }
      ],
      "stateMutability": "view",
      "type": "function",
      "constant": true
    },
    {
      "inputs": [
        {
          "internalType": "address",
          "name": "_account",
          "type": "address"
        }
      ],
      "name": "getUserCreationDate",
      "outputs": [
        {
          "internalType": "uint256",
          "name": "",
          "type": "uint256"
        }
      ],
      "stateMutability": "view",
      "type": "function",
      "constant": true
    },
    {
      "inputs": [
        {
          "internalType": "address",
          "name": "_account",
          "type": "address"
        }
      ],
      "name": "getUserId",
      "outputs": [
        {
          "internalType": "bytes32",
          "name": "",
          "type": "bytes32"
        }
      ],
      "stateMutability": "view",
      "type": "function",
      "constant": true
    },
    {
      "inputs": [],
      "name": "getAllUsers",
      "outputs": [
        {
          "internalType": "address[]",
          "name": "",
          "type": "address[]"
        },
        {
          "internalType": "enum UsersContract.Roles[]",
          "name": "",
          "type": "uint8[]"
        },
        {
          "internalType": "uint256[]",
          "name": "",
          "type": "uint256[]"
        },
        {
          "internalType": "bytes32[]",
          "name": "",
          "type": "bytes32[]"
        }
      ],
      "stateMutability": "view",
      "type": "function",
      "constant": true
    }
  ],
  "bytecode": "0x60806040523480156200001157600080fd5b50336000806101000a81548173ffffffffffffffffffffffffffffffffffffffff021916908373ffffffffffffffffffffffffffffffffffffffff1602179055506000334260405160200162000069929190620002fa565b60405160208183030381529060405280519060200120905060405180608001604052803373ffffffffffffffffffffffffffffffffffffffff168152602001600280811115620000e2577f4e487b7100000000000000000000000000000000000000000000000000000000600052602160045260246000fd5b815260200142815260200182815250600160003373ffffffffffffffffffffffffffffffffffffffff1673ffffffffffffffffffffffffffffffffffffffff16815260200190815260200160002060008201518160000160006101000a81548173ffffffffffffffffffffffffffffffffffffffff021916908373ffffffffffffffffffffffffffffffffffffffff16021790555060208201518160000160146101000a81548160ff02191690836002811115620001c9577f4e487b7100000000000000000000000000000000000000000000000000000000600052602160045260246000fd5b021790555060408201518160010155606082015181600201559050506002339080600181540180825580915050600190039060005260206000200160009091909190916101000a81548173ffffffffffffffffffffffffffffffffffffffff021916908373ffffffffffffffffffffffffffffffffffffffff1602179055503373ffffffffffffffffffffffffffffffffffffffff167fec7b752b40011fdbad63d9db6571404d60a3dad020872d0031a26c161602904a600283604051620002939291906200032a565b60405180910390a2506200044d565b620002b7620002b18262000357565b620003c8565b82525050565b620002c8816200036b565b82525050565b620002d981620003b4565b82525050565b620002f4620002ee82620003aa565b620003f0565b82525050565b6000620003088285620002a2565b6014820191506200031a8284620002df565b6020820191508190509392505050565b6000604082019050620003416000830185620002ce565b620003506020830184620002bd565b9392505050565b600062000364826200038a565b9050919050565b6000819050919050565b6000819050620003858262000436565b919050565b600073ffffffffffffffffffffffffffffffffffffffff82169050919050565b6000819050919050565b6000620003c18262000375565b9050919050565b6000620003d582620003dc565b9050919050565b6000620003e98262000429565b9050919050565b6000819050919050565b7f4e487b7100000000000000000000000000000000000000000000000000000000600052602160045260246000fd5b60008160601b9050919050565b600381106200044a5762000449620003fa565b5b50565b611b5c806200045d6000396000f3fe608060405234801561001057600080fd5b506004361061009e5760003560e01c80638523cfc6116100665780638523cfc61461017f578063985751881461019b578063a87430ba146101b7578063b4a99a4e146101ea578063e2842d79146102085761009e565b806327820851146100a35780632b956ff7146100d3578063502c9bd514610103578063630a195b1461013357806369751e0e1461014f575b600080fd5b6100bd60048036038101906100b8919061129f565b610229565b6040516100ca91906117b3565b60405180910390f35b6100ed60048036038101906100e8919061129f565b610282565b6040516100fa9190611798565b60405180910390f35b61011d60048036038101906101189190611304565b6102ce565b60405161012a91906116d7565b60405180910390f35b61014d600480360381019061014891906112c8565b61030d565b005b6101696004803603810190610164919061129f565b6105c2565b6040516101769190611877565b60405180910390f35b610199600480360381019061019491906112c8565b61060e565b005b6101b560048036038101906101b0919061129f565b610adb565b005b6101d160048036038101906101cc919061129f565b610c6c565b6040516101e194939291906116f2565b60405180910390f35b6101f2610cc9565b6040516101ff91906116d7565b60405180910390f35b610210610ced565b6040516102209493929190611737565b60405180910390f35b6000600160008373ffffffffffffffffffffffffffffffffffffffff1673ffffffffffffffffffffffffffffffffffffffff16815260200190815260200160002060000160149054906101000a900460ff169050919050565b6000600160008373ffffffffffffffffffffffffffffffffffffffff1673ffffffffffffffffffffffffffffffffffffffff168152602001908152602001600020600201549050919050565b600281815481106102de57600080fd5b906000526020600020016000915054906101000a900473ffffffffffffffffffffffffffffffffffffffff1681565b600280811115610346577f4e487b7100000000000000000000000000000000000000000000000000000000600052602160045260246000fd5b600160003373ffffffffffffffffffffffffffffffffffffffff1673ffffffffffffffffffffffffffffffffffffffff16815260200190815260200160002060000160149054906101000a900460ff1660028111156103ce577f4e487b7100000000000000000000000000000000000000000000000000000000600052602160045260246000fd5b1461040e576040517f08c379a000000000000000000000000000000000000000000000000000000000815260040161040590611837565b60405180910390fd5b600073ffffffffffffffffffffffffffffffffffffffff16600160008473ffffffffffffffffffffffffffffffffffffffff1673ffffffffffffffffffffffffffffffffffffffff16815260200190815260200160002060000160009054906101000a900473ffffffffffffffffffffffffffffffffffffffff1673ffffffffffffffffffffffffffffffffffffffff1614156104e0576040517f08c379a00000000000000000000000000000000000000000000000000000000081526004016104d790611857565b60405180910390fd5b80600160008473ffffffffffffffffffffffffffffffffffffffff1673ffffffffffffffffffffffffffffffffffffffff16815260200190815260200160002060000160146101000a81548160ff0219169083600281111561056b577f4e487b7100000000000000000000000000000000000000000000000000000000600052602160045260246000fd5b02179055508173ffffffffffffffffffffffffffffffffffffffff167f4ac36fa53f167ceb85964be512e01de2a3b8bdb9862f917da079deeeff689b38826040516105b691906117b3565b60405180910390a25050565b6000600160008373ffffffffffffffffffffffffffffffffffffffff1673ffffffffffffffffffffffffffffffffffffffff168152602001908152602001600020600101549050919050565b600280811115610647577f4e487b7100000000000000000000000000000000000000000000000000000000600052602160045260246000fd5b600160003373ffffffffffffffffffffffffffffffffffffffff1673ffffffffffffffffffffffffffffffffffffffff16815260200190815260200160002060000160149054906101000a900460ff1660028111156106cf577f4e487b7100000000000000000000000000000000000000000000000000000000600052602160045260246000fd5b1461070f576040517f08c379a000000000000000000000000000000000000000000000000000000000815260040161070690611837565b60405180910390fd5b60006002811115610749577f4e487b7100000000000000000000000000000000000000000000000000000000600052602160045260246000fd5b816002811115610782577f4e487b7100000000000000000000000000000000000000000000000000000000600052602160045260246000fd5b14156107c3576040517f08c379a00000000000000000000000000000000000000000000000000000000081526004016107ba906117f7565b60405180910390fd5b600073ffffffffffffffffffffffffffffffffffffffff16600160008473ffffffffffffffffffffffffffffffffffffffff1673ffffffffffffffffffffffffffffffffffffffff16815260200190815260200160002060000160009054906101000a900473ffffffffffffffffffffffffffffffffffffffff1673ffffffffffffffffffffffffffffffffffffffff1614610894576040517f08c379a000000000000000000000000000000000000000000000000000000000815260040161088b90611817565b60405180910390fd5b600082426040516020016108a99291906116ab565b60405160208183030381529060405280519060200120905060405180608001604052808473ffffffffffffffffffffffffffffffffffffffff168152602001836002811115610921577f4e487b7100000000000000000000000000000000000000000000000000000000600052602160045260246000fd5b815260200142815260200182815250600160008573ffffffffffffffffffffffffffffffffffffffff1673ffffffffffffffffffffffffffffffffffffffff16815260200190815260200160002060008201518160000160006101000a81548173ffffffffffffffffffffffffffffffffffffffff021916908373ffffffffffffffffffffffffffffffffffffffff16021790555060208201518160000160146101000a81548160ff02191690836002811115610a07577f4e487b7100000000000000000000000000000000000000000000000000000000600052602160045260246000fd5b021790555060408201518160010155606082015181600201559050506002839080600181540180825580915050600190039060005260206000200160009091909190916101000a81548173ffffffffffffffffffffffffffffffffffffffff021916908373ffffffffffffffffffffffffffffffffffffffff1602179055508273ffffffffffffffffffffffffffffffffffffffff167fec7b752b40011fdbad63d9db6571404d60a3dad020872d0031a26c161602904a8383604051610ace9291906117ce565b60405180910390a2505050565b600280811115610b14577f4e487b7100000000000000000000000000000000000000000000000000000000600052602160045260246000fd5b600160003373ffffffffffffffffffffffffffffffffffffffff1673ffffffffffffffffffffffffffffffffffffffff16815260200190815260200160002060000160149054906101000a900460ff166002811115610b9c577f4e487b7100000000000000000000000000000000000000000000000000000000600052602160045260246000fd5b14610bdc576040517f08c379a0000000000000000000000000000000000000000000000000000000008152600401610bd390611837565b60405180910390fd5b600160008273ffffffffffffffffffffffffffffffffffffffff1673ffffffffffffffffffffffffffffffffffffffff168152602001908152602001600020600080820160006101000a81549073ffffffffffffffffffffffffffffffffffffffff02191690556000820160146101000a81549060ff021916905560018201600090556002820160009055505050565b60016020528060005260406000206000915090508060000160009054906101000a900473ffffffffffffffffffffffffffffffffffffffff16908060000160149054906101000a900460ff16908060010154908060020154905084565b60008054906101000a900473ffffffffffffffffffffffffffffffffffffffff1681565b606080606080600060028054905067ffffffffffffffff811115610d3a577f4e487b7100000000000000000000000000000000000000000000000000000000600052604160045260246000fd5b604051908082528060200260200182016040528015610d685781602001602082028036833780820191505090505b509050600060028054905067ffffffffffffffff811115610db2577f4e487b7100000000000000000000000000000000000000000000000000000000600052604160045260246000fd5b604051908082528060200260200182016040528015610de05781602001602082028036833780820191505090505b509050600060028054905067ffffffffffffffff811115610e2a577f4e487b7100000000000000000000000000000000000000000000000000000000600052604160045260246000fd5b604051908082528060200260200182016040528015610e585781602001602082028036833780820191505090505b50905060005b6002805490508110156111c1576001600060028381548110610ea9577f4e487b7100000000000000000000000000000000000000000000000000000000600052603260045260246000fd5b9060005260206000200160009054906101000a900473ffffffffffffffffffffffffffffffffffffffff1673ffffffffffffffffffffffffffffffffffffffff1673ffffffffffffffffffffffffffffffffffffffff16815260200190815260200160002060000160149054906101000a900460ff16848281518110610f58577f4e487b7100000000000000000000000000000000000000000000000000000000600052603260045260246000fd5b60200260200101906002811115610f98577f4e487b7100000000000000000000000000000000000000000000000000000000600052602160045260246000fd5b90816002811115610fd2577f4e487b7100000000000000000000000000000000000000000000000000000000600052602160045260246000fd5b815250506001600060028381548110611014577f4e487b7100000000000000000000000000000000000000000000000000000000600052603260045260246000fd5b9060005260206000200160009054906101000a900473ffffffffffffffffffffffffffffffffffffffff1673ffffffffffffffffffffffffffffffffffffffff1673ffffffffffffffffffffffffffffffffffffffff168152602001908152602001600020600101548382815181106110b6577f4e487b7100000000000000000000000000000000000000000000000000000000600052603260045260246000fd5b6020026020010181815250506001600060028381548110611100577f4e487b7100000000000000000000000000000000000000000000000000000000600052603260045260246000fd5b9060005260206000200160009054906101000a900473ffffffffffffffffffffffffffffffffffffffff1673ffffffffffffffffffffffffffffffffffffffff1673ffffffffffffffffffffffffffffffffffffffff168152602001908152602001600020600201548282815181106111a2577f4e487b7100000000000000000000000000000000000000000000000000000000600052603260045260246000fd5b60200260200101818152505080806111b9906119f2565b915050610e5e565b5060028383838380548060200260200160405190810160405280929190818152602001828054801561124857602002820191906000526020600020905b8160009054906101000a900473ffffffffffffffffffffffffffffffffffffffff1673ffffffffffffffffffffffffffffffffffffffff16815260200190600101908083116111fe575b50505050509350965096509650965050505090919293565b60008135905061126f81611ae8565b92915050565b60008135905061128481611aff565b92915050565b60008135905061129981611b0f565b92915050565b6000602082840312156112b157600080fd5b60006112bf84828501611260565b91505092915050565b600080604083850312156112db57600080fd5b60006112e985828601611260565b92505060206112fa85828601611275565b9150509250929050565b60006020828403121561131657600080fd5b60006113248482850161128a565b91505092915050565b6000611339838361138d565b60208301905092915050565b6000611351838361153a565b60208301905092915050565b60006113698383611558565b60208301905092915050565b60006113818383611676565b60208301905092915050565b61139681611987565b82525050565b6113a581611987565b82525050565b6113bc6113b782611987565b611a3b565b82525050565b60006113cd826118d2565b6113d78185611932565b93506113e283611892565b8060005b838110156114135781516113fa888261132d565b9750611405836118fe565b9250506001810190506113e6565b5085935050505092915050565b600061142b826118dd565b6114358185611943565b9350611440836118a2565b8060005b838110156114715781516114588882611345565b97506114638361190b565b925050600181019050611444565b5085935050505092915050565b6000611489826118e8565b6114938185611965565b935061149e836118b2565b8060005b838110156114cf5781516114b6888261135d565b97506114c183611918565b9250506001810190506114a2565b5085935050505092915050565b60006114e7826118f3565b6114f18185611954565b93506114fc836118c2565b8060005b8381101561152d5781516115148882611375565b975061151f83611925565b925050600181019050611500565b5085935050505092915050565b61154381611999565b82525050565b61155281611999565b82525050565b611561816119e0565b82525050565b611570816119e0565b82525050565b6000611583600c83611976565b91507f496e76616c696420726f6c6500000000000000000000000000000000000000006000830152602082019050919050565b60006115c3601383611976565b91507f5573657220616c726561647920657869737473000000000000000000000000006000830152602082019050919050565b6000611603601b83611976565b91507f4f6e6c792061646d696e2063616e20706572666f726d207468697300000000006000830152602082019050919050565b6000611643601383611976565b91507f5573657220646f6573206e6f74206578697374000000000000000000000000006000830152602082019050919050565b61167f816119d6565b82525050565b61168e816119d6565b82525050565b6116a56116a0826119d6565b611a5f565b82525050565b60006116b782856113ab565b6014820191506116c78284611694565b6020820191508190509392505050565b60006020820190506116ec600083018461139c565b92915050565b6000608082019050611707600083018761139c565b6117146020830186611567565b6117216040830185611685565b61172e6060830184611549565b95945050505050565b6000608082019050818103600083015261175181876113c2565b90508181036020830152611765818661147e565b9050818103604083015261177981856114dc565b9050818103606083015261178d8184611420565b905095945050505050565b60006020820190506117ad6000830184611549565b92915050565b60006020820190506117c86000830184611567565b92915050565b60006040820190506117e36000830185611567565b6117f06020830184611549565b9392505050565b6000602082019050818103600083015261181081611576565b9050919050565b60006020820190508181036000830152611830816115b6565b9050919050565b60006020820190508181036000830152611850816115f6565b9050919050565b6000602082019050818103600083015261187081611636565b9050919050565b600060208201905061188c6000830184611685565b92915050565b6000819050602082019050919050565b6000819050602082019050919050565b6000819050602082019050919050565b6000819050602082019050919050565b600081519050919050565b600081519050919050565b600081519050919050565b600081519050919050565b6000602082019050919050565b6000602082019050919050565b6000602082019050919050565b6000602082019050919050565b600082825260208201905092915050565b600082825260208201905092915050565b600082825260208201905092915050565b600082825260208201905092915050565b600082825260208201905092915050565b6000611992826119b6565b9050919050565b6000819050919050565b60008190506119b182611ad4565b919050565b600073ffffffffffffffffffffffffffffffffffffffff82169050919050565b6000819050919050565b60006119eb826119a3565b9050919050565b60006119fd826119d6565b91507fffffffffffffffffffffffffffffffffffffffffffffffffffffffffffffffff821415611a3057611a2f611a69565b5b600182019050919050565b6000611a4682611a4d565b9050919050565b6000611a5882611ac7565b9050919050565b6000819050919050565b7f4e487b7100000000000000000000000000000000000000000000000000000000600052601160045260246000fd5b7f4e487b7100000000000000000000000000000000000000000000000000000000600052602160045260246000fd5b60008160601b9050919050565b60038110611ae557611ae4611a98565b5b50565b611af181611987565b8114611afc57600080fd5b50565b60038110611b0c57600080fd5b50565b611b18816119d6565b8114611b2357600080fd5b5056fea26469706673582212201214675884f52a696541287e29fb18975efc33c2fa60cd8fe0944597b75da5af64736f6c63430008000033",
  "immutableReferences": {},
  "source": "// SPDX-License-Identifier: MIT\npragma solidity >=0.4.22 <0.9.0;\n\ncontract UsersContract {\n    address public Owner;\n    enum Roles {None, User, Admin}\n\n    struct User {\n        address account;\n        Roles role;\n        uint createdAt; \n        bytes32 userId;\n    }\n\n    mapping(address => User) public users;\n    address[] public userAddresses;\n\n    modifier onlySuperUser() {\n        require(msg.sender == Owner, \"Only Super User\");\n        _;\n    }\n\n    modifier onlyAdmin() {\n        require(users[msg.sender].role == Roles.Admin, \"Only admin can perform this\");\n        _;\n    }\n\n    event UserCreated(address indexed account, Roles role, bytes32 userId);\n    event RoleAssigned(address indexed account, Roles role);\n\n    constructor() {\n        Owner = msg.sender;\n        bytes32 ownerId = keccak256(abi.encodePacked(msg.sender, block.timestamp));\n        users[msg.sender] = User(msg.sender, Roles.Admin, block.timestamp, ownerId);\n        userAddresses.push(msg.sender);\n        emit UserCreated(msg.sender, Roles.Admin, ownerId);\n    }\n\n    function createUser(address _account, Roles _role) public onlyAdmin {\n        require(_role != Roles.None, \"Invalid role\");\n        require(users[_account].account == address(0), \"User already exists\");\n\n        bytes32 newUserId = keccak256(abi.encodePacked(_account, block.timestamp));\n        \n        users[_account] = User(_account, _role, block.timestamp, newUserId);\n        userAddresses.push(_account);\n\n        emit UserCreated(_account, _role, newUserId);\n    }\n\n    function assignRole(address _account, Roles _role) public onlyAdmin {\n        require(users[_account].account != address(0), \"User does not exist\");\n        users[_account].role = _role;\n        emit RoleAssigned(_account, _role);\n    }\n\n    function removeUser(address _account) public onlyAdmin {\n        delete users[_account];\n    }\n\n    function getUserRole(address _account) public view returns (Roles) {\n        return users[_account].role;\n    }\n\n    function getUserCreationDate(address _account) public view returns (uint) {\n        return users[_account].createdAt;\n    }\n\n    function getUserId(address _account) public view returns (bytes32) {\n        return users[_account].userId; \n    }\n\n    function getAllUsers() public view returns (address[] memory, Roles[] memory, uint[] memory, bytes32[] memory) {\n        Roles[] memory roles = new Roles[](userAddresses.length);\n        uint[] memory creationDates = new uint[](userAddresses.length); \n        bytes32[] memory userIds = new bytes32[](userAddresses.length);\n\n        for (uint i = 0; i < userAddresses.length; i++) {\n            roles[i] = users[userAddresses[i]].role;\n            creationDates[i] = users[userAddresses[i]].createdAt; \n            userIds[i] = users[userAddresses[i]].userId; \n        }\n\n        return (userAddresses, roles, creationDates, userIds); \n    }\n}\n",
  "sourcePath": "/home/partybreaker911/Development/course_project/contract/contracts/UsersContract.sol",
  "compiler": {
    "name": "solc",
    "version": "0.8.0+commit.c7dfd78e.Emscripten.clang"
  },
  "schemaVersion": "3.4.16",
  "updatedAt": "2024-10-13T20:58:50.843Z",
  "networkType": "ethereum",
  "devdoc": {
    "kind": "dev",
    "methods": {},
    "version": 1
  },
  "userdoc": {
    "kind": "user",
    "methods": {},
    "version": 1
  }
}